:020000040800F2
:10000000A8F700202D020008D96C0008E11E0008A6
:10001000D56C000801110008FBB0000800000000CA
:1000200000000000000000000000000043930008F2
:100030009D140008000000002172000821970008AC
:100040004702000847020008470200081976000826
:10005000470200084702000847020008470200085C
:10006000470200084702000847020008470200084C
:10007000470200084702000847020008470200083C
:10008000470200084702000847020008470200082C
:10009000470200084702000847020008470200081C
:1000A000470200084702000847020008470200080C
:1000B0004702000885970008319B000847020008A6
:1000C00047020008470200084702000847020008EC
:1000D0004702000859AD0008E1AD000851AE000824
:1000E00047020008470200084702000847020008CC
:1000F00047020008470200084702000847020008BC
:1001000047020008297A0008470200084702000851
:100110004702000847020008699B0008FD9B000891
:10012000470200084702000847020008470200088B
:1001300000F002F800F06BF80AA090E8000C82448E
:100140008344AAF10107DA4501D100F060F8AFF26B
:10015000090EBAE80F0013F0010F18BFFB1A43F0A5
:100160000103184790FF0300B0FF03000A444FF05B
:10017000000C10F8013B13F0070408BF10F8014B06
:100180001D1108BF10F8015B641E05D010F8016B4B
:10019000641E01F8016BF9D113F0080F1EBF10F8AF
:1001A000014BAD1C0C1B09D16D1E58BF01F801CBD2
:1001B000FAD505E014F8016B01F8016B6D1EF9D555
:1001C0009142D6D37047000000230024002500266A
:1001D000103A28BF78C1FBD8520728BF30C148BFAA
:1001E0000B607047642900F0C380752900F0C0805F
:1001F000782900F02481632900F0AC83732900F092
:10020000B183002070471FB51FBD10B510BD00F0B1
:10021000FDFB1146FFF7F7FF0FF0C2FC00F01BFCDF
:1002200003B4FFF7F2FF03BC0BF0D9F8094880478D
:1002300009480047FEE7FEE7FEE7FEE7FEE7FEE7C8
:10024000FEE7FEE7FEE7FEE704480549054A064BE0
:10025000704700002597000831010008A8F1002030
:10026000A8F70020A8F30020A8F30020704710B5DD
:100270004C1084EA530404D54042C1F1000138BF58
:10028000491E1B4204D55242C3F1000338BF5B1E16
:1002900000F062FA14F0804F04D04042C1F1000136
:1002A00038BF491E14F0004F04D05242C3F100037E
:1002B00038BF5B1E10BD00000FB4044910B503AA7F
:1002C000029800F053FB10BC5DF814FB880000207E
:1002D00070B5044685690068C10601D5302600E086
:1002E0002026C00707D070BDD4E9012130469047D1
:1002F000206A401C20626D1EF6D570BD70B50446A4
:1003000085690078C00707D170BDD4E9012120209C
:100310009047206A401C20626D1EF6D570BD70B5F6
:100320000C460546012A05D02878800600D5EA69E2
:10033000002302E0012305E05B1C934202D2E05C53
:100340000028F9D1A869E618C01AA861286A1844DB
:1003500028622846FFF7BCFF04E0D5E9012114F824
:10036000010B9047B442F8D32846FFF7C7FF70BD92
:100370002DE9F0410646002410687529314616A57E
:1003800010D0AFF30080002802DA404213A507E046
:1003900031688A0701D512A502E0490704D511A5E5
:1003A000012401E0AFF3008000210A2206F12407B6
:1003B00009E0B0FBF2FCB0FBF2F302FB1C003030B2
:1003C00078541846491C0028F3D123462A46304663
:1003D000BDE8F04100F042BA000000002D0000002E
:1003E0002B00000020000000F0B40D460188090534
:1003F00002D5214C7C4402E01F4C7C440E34002189
:1004000000F1240608E002F00F071209E75D42EA56
:1004100003721B097754491C52EA0307F3D102788F
:100420000023120704D5702D06D009B10223113420
:100430002246F0BC00F012BA01231034F8E770B580
:1004400004460D4621461068AFF300800246294657
:100450002046BDE870400023C6E7D21D22F0070306
:10046000D3E90023C0E70368126843F02003036068
:100470000823C3610023B7E7CCF703002DE9F05F41
:10048000894604464FF0000ADFF874B1FB44C0F817
:1004900020A02046E1688847002874D0252806D08F
:1004A000D4E901219047206A401C2062F1E7002630
:1004B0005F462046E16888472028054607DB312D46
:1004C00005D2781910F8200C08B10643F1E7B007FF
:1004D00001D526F00406C4F81CA00027C4F818A013
:1004E0002A2D09D028460AF073FF38B304EB870899
:1004F000303DC8F8185019E059F8041B204604EBA9
:1005000087029161E1688847012F054618D1E069AB
:10051000002820DA26F020061DE0D8F8180000EBAD
:10052000800005EB40003038C8F818002046E1682C
:10053000884705460AF04CFF0028EED1012F0AD06B
:100540002E2D08D12046E16888477F1C0546022FE2
:1005500046F02006C4DBA069002803DA404246F0DA
:100560000106A061F00701D026F010066C2D0BD01B
:10057000682D09D04C2D39D06A2D35D0742D35D049
:100580007A2D33D016E038E0E1682F4620468847C0
:10059000B842054609D16C2F26D04FF48060E1683F
:1005A000064320468847054604E06C2F1AD04FF4D6
:1005B000807006430DB3A5F14100192802D82035FB
:1005C00046F400664A462946204626604E46FFF716
:1005D00009FE80B101280BD0F61D26F0070000F1BE
:1005E000080956E74020E4E78020D8E70020D6E756
:1005F00006F104094DE7284652E7206ABDE8F09F5E
:100600005CF7030030B505460B462A4613F8014B4C
:1006100012F8010B08B1A042F8D01CB1002802D09A
:100620006D1CF1E7284630BD40EA0103024630B5B3
:100630009B0710D14FF0013400E008C208C91D1B10
:100640009D4315EAC41FF8D013F0FF0102F8011B07
:100650000DD01B0AF8E711F8013B002B02F8013B13
:1006600005D011F8013B002B02F8013BF3D130BD5E
:1006700010B5431C02E010F8011B71B18107FAD1DB
:100680004FF0013202C88C1A8C4314EAC211F9D01F
:10069000C01A0A0603D0C01E10BDC01A10BD0A043D
:1006A00001D0801E10BD0902FCD0401E10BD421EAC
:1006B00012F8013F002BFBD111F8013B002B02F88F
:1006C000013BF9D17047032A40F2308010F0030C4F
:1006D00000F0158011F8013BBCF1020F624498BF95
:1006E00011F801CB00F8013B38BF11F8013BA2F132
:1006F000040298BF00F801CB38BF00F8013B11F0AD
:10070000030300F04581083AC0F0088051F8043B2B
:10071000083A51F804CBA0E80810F5E7121D5CBFB9
:1007200051F8043B40F8043BAFF30080D20724BFEC
:1007300011F8013B11F801CB48BF11F8012B24BF80
:1007400000F8013B00F801CB48BF00F8012B7047CF
:10075000704770477047704753EA020C00F0698099
:100760002DE9F04B4FF00006002B1FBFB3FA83F5C5
:1007700003FA05F424FA05F65E4012BF1643B2FAF6
:1007800082F502FA05F4C5F120051EBF22FA05FC28
:1007900044EA0C04203556EA044C4FEA144418BFCE
:1007A000641C4FF000084FF00009904271EB030CFD
:1007B00039D3002919BFB1FA81F701FA07F6B0FA67
:1007C00080F700FA07F6C7F120071EBF20FA07FCE2
:1007D00046EA0C062037B6FBF4FCA7EB0507103FF2
:1007E00007F01F0BCBF120060CFA0BFB2CFA06F6D8
:1007F00044BFB3460026202FA4BF5E464FF0000B37
:100800005BEA060C08BF4FF0010B19EB0B09ABFBC1
:10081000027C48EB0608C01B06FB02CC0BFB03CC9A
:1008200071EB0C01C1E70B46024641464846BDE864
:10083000F08B13B54FF000004FF00001AFF30080D4
:10084000BDE81C40704710B500F0D4F8006810BD3A
:1008500010B5044600F0CEF8046010BD2DE9F04755
:100860000D4699469246044600F124080168880620
:1008700004D5E06921F01001216000E00120A842C8
:1008800001DD471B00E00027A1697A1902EB09008E
:10089000081AA0612078C00602D42046FFF718FD90
:1008A000002608E0D4E901211AF806009047206AE2
:1008B000401C761C20624E45F4DB2078C0060AD529
:1008C0002046FFF705FD06E0D4E9012130209047DE
:1008D000206A401C2062381EA7F10107F4DC07E003
:1008E000D4E9012118F805009047206A401C2062D5
:1008F000281EA5F10105F3DC2046FFF7FFFC207858
:10090000000602D50220BDE8F0870120FBE70000C9
:1009100001694A1C02610878704700B58FB0CDE9C3
:1009200001310021059105497944CDE903101146B3
:100930006846FFF7A3FD0FB000BD0000E5FFFFFF15
:1009400010B5436913B1AFF3008001E0FFF7E7FC96
:10095000012010BD127800F124010A7000224A70B3
:100960000122EDE711684FF0FF32E9E7074B70B560
:100970000D467B44FFF7D1FF0446284600F03EF8C1
:1009800010B14FF0FF3070BD204670BDF7E10000A0
:1009900010B5203AC0F00B80B1E81850203AA0E81A
:1009A0001850B1E81850A0E81850BFF4F5AF5FEA4E
:1009B000027C24BFB1E81850A0E8185044BF18C901
:1009C00018C0BDE810405FEA827C24BF51F8043BA8
:1009D00040F8043B08BF7047D20728BF31F8023BFC
:1009E00048BF11F8012B28BF20F8023B48BF00F890
:1009F000012B70470048704748F10020007B00F051
:100A0000800070470048704748F100207546FFF7A6
:100A1000F9FFAE4605006946534620F007008546BB
:100A200018B020B5FFF710FCBDE820404FF00006DD
:100A30004FF000074FF000084FF0000B21F00701C6
:100A4000AC46ACE8C009ACE8C009ACE8C009ACE809
:100A5000C0098D46704710B50446AFF300802046AC
:100A6000BDE81040FFF7DCBB10B501F03FFA10BD48
:100A70002DE9F04107460C460026002509E0360224
:100A80003919491B491E88B200F008F80644681C51
:100A9000C5B2A542F3DB3046BDE8F08170B504462F
:100AA000002601F0A9FA2546E11704EB11610912AD
:100AB000A02202EB4101C8B201F01EFB01F0CEFA08
:100AC000E11704EB11610912A4EB0121C8B201F096
:100AD00013FB01F0C3FA01F08FFAA12001F00CFB27
:100AE00001F0BCFA002001F029FA064601F0A0FA54
:100AF000304670BD2DE9F04105460E4617460024EC
:100B000009E0E20026FA02F2D1B22A1990B200F00E
:100B100006F8601CC4B2BC42F3DBBDE8F08170B5DE
:100B200004460E4601F068FA2546E11704EB116110
:100B30000912A02202EB4101C8B201F0DDFA01F076
:100B40008DFAE11704EB11610912A4EB0121C8B27F
:100B500001F0D2FA01F082FA304601F0CDFA01F04C
:100B60007DFA01F065FA0A200BF032FD70BD00003D
:100B7000F8B5002776E2FD48007801287ED142F6DC
:100B8000123001F0B9FC052F4BD2DFE807F0034B20
:100B900096E8FD00701CC6B24FF6FF700090F44856
:100BA0000288A0236421002001F04EFFF0201023D2
:100BB000F0A264210090002008F066FD4FF4FA7066
:100BC0000BF006FD06F042F905463DBB0120EC495D
:100BD000086006F018F905460020EA49C1F8A001AE
:100BE000C5B94FF6FF700090E1480288A023782134
:100BF000002001F029FFF0201023E3A278210090CB
:100C0000002008F041FD4FF4FA700BF0E1FC0026E3
:100C1000012706E0284608F04BFC02E0284608F0D1
:100C200047FC90E1701CC6B24FF6FF700090D048B0
:100C30000288A0236421002001F006FFF020102389
:100C4000D4A264210090002008F01EFD4FF4FA7039
:100C50000BF0BEFC06F0FAF8054655BB0120C8496A
:100C60000860022006F0CFF805460020C549C1F80B
:100C7000A001D5B94FF6FF70009000E064E1BC48D8
:100C80000288A0237821002001F0DEFEF02010234E
:100C9000BDA278210090002008F0F6FC4FF4FA7015
:100CA0000BF096FC0026022706E0284608F000FC20
:100CB00002E0284608F0FCFB45E14FF6FF7000908B
:100CC000AB480288A0236421002001F0BDFEF02083
:100CD0001023B5A264210090002008F0D5FC4FF449
:100CE000FA700BF075FC06F057F90546BDB94FF6E2
:100CF000FF7000909E480288A0237821002001F018
:100D0000A3FEF0201023ACA278210090002008F070
:100D1000BBFC4FF4FA700BF05BFC03271AE04FF6B4
:100D2000FF70009092480288A0236421002001F007
:100D30008BFEF0201023A6A264210090002008F072
:100D4000A3FC4FF4FA700BF043FC284608F0B0FB0C
:100D5000002600274FF496600BF03AFCF3E04FF6C4
:100D6000FF70009082480288A0236421002001F0D7
:100D70006BFEF02010239DA264210090002008F05B
:100D800083FC4FF4FA7000E026E00BF021FC06F043
:100D900099F90546BDB94FF6FF7000907448028876
:100DA000A0237821002001F04FFEF020102393A211
:100DB00078210090002008F067FC4FF4FA700BF0E7
:100DC00007FC042703E00027284608F071FB4FF4D6
:100DD00096600BF0FDFBB6E04FF6FF7000906448A4
:100DE0000288A0236421002001F02EFEF0201023B1
:100DF00087A264210090002008F046FCF020102318
:100E00008AA278210090002008F03EFC00BF0EF07E
:100E1000CBFA044689480188A142F8DD2146022028
:100E200006F084F9054686480078092846D2DFE8AE
:100E300000F045050D151D252D353D001C2081496F
:100E400008608148096840F8214037E01C207D494E
:100E500008607D48096840F821402FE01C2079494E
:100E600008607948096840F8214027E01C2075494E
:100E700008607548096840F821401FE01C2071494E
:100E800008607148096840F8214017E01C206D494E
:100E900008606D48096840F821400FE01C2069494E
:100EA00008606948096840F8214007E01C2065494E
:100EB00008606548096840F8214000BF00BF42F65D
:100EC000123001F019FBC5BB4FF6FF7000902848A7
:100ED0000288A0236421002001F0B6FD2348007899
:100EE000012807D1F020102358A27821009000207B
:100EF00008F0CAFB594806F049F940F2DC500BF003
:100F000067FB4FF6FF70A023F022642100900020C1
:100F100001F09AFD15480078012801D1FFF728FE5D
:100F200012480078022807D101214D4808F0B6FE8A
:100F30004FF6FF7001F0E0FAF8BDFFE70027284602
:100F400008F0B6FA00BF00BF4FF4C8700BF040FBCA
:100F5000052E0AD14FF6FF70009005480288A023A5
:100F60006421002001F070FD7DE07BE0680000203E
:100F7000D4070020C7EBB0B4D6B8CEC6000000003E
:100F8000A081214200802142D6B8CEC6D5FDB3A3B0
:100F900000000000C7EBB0B4D4D9B0B4D2BBB4CE1B
:100FA000D6B8CEC600000000B6D4B1C8C1BDB4CE1C
:100FB000D6B8CEC600000000B6D4B1C8B3C9B9A631
:100FC0002CC1BDB4CED6B8CEC6D2BBD1F90000007C
:100FD000B6D4B1C8CAA7B0DCA3ACC7EBD6D8D0C2D0
:100FE000C2BCC8EBD6B8CEC600000000C9FAB3C96F
:100FF000D6B8CEC6C4A3B0E500000000C9FAB3C994
:10100000D6B8CEC6C4A3B0E5B3C9B9A600000000E7
:10101000C7EBCAE4C8EBB4A2B4E649442CB0B4456B
:101020006E746572B1A3B4E600000000303D3C2050
:101030004944203C3D3239390000000000070020BF
:101040006B00002018000020E4050020C2BCC8EBA3
:10105000D6B8CEC6B3C9B9A6000000005C00002017
:101060000004004087E500BF0121044808F016FE97
:101070004FF6FF7001F040FA00BF5DE7000400404A
:1010800008B50121082006F0FDF84FF48070ADF896
:10109000000010208DF8030003208DF8020069463F
:1010A000044800F015FE4FF48071024800F0A4FEE1
:1010B00008BD0000000C014010B5012006F002F947
:1010C000002006F0FFF810BD08B501460020009092
:1010D000034800900098084400900098008808BDDC
:1010E000006C004008B500220092044A0092009A69
:1010F00002440092009A116008BD0000006C00409C
:1011000000BFFEE770B500254FF4803404E0802076
:1011100006F076FC00B103E0201EA4F10104F6D134
:1011200000BF0CB9032070BD40F2FF5006F022FC56
:101130002846F8E770B5044605E01548456B05F00C
:10114000450000B100E0F8E700BF042006F058FCBD
:1011500020B1042006F00EFC032070BD012006F033
:101160004FFC20B1012006F005FC0120F5E70848FE
:101170000069A04201D01020EFE740F2FF5004497F
:1011800088630846406908210840C0B2E5E70000CE
:101190000080014070B500264FF4803505E011480D
:1011A000446B04F0450000B103E0281EA5F10105E1
:1011B000F5D100BF15B104F0040028B103260420C6
:1011C00006F0D8FB304670BD012006F019FC18B1BE
:1011D0000126012006F0CEFB40F2FF5006F0CAFBCC
:1011E0003046F0E70080014010B505E00B48446B45
:1011F00004F0450000B100E0F8E700BF042006F06D
:10120000FFFB20B1042006F0B5FB032010BD40F227
:10121000FF5006F0AFFB0020F8E70000008001401F
:101220002DE9F04105460E464FF0000805E01F4845
:10123000476B07F0450000B100E0F8E700BF04206D
:1012400006F0DEFB28B1042006F094FB0320BDE885
:10125000F081012006F0D4FB20B1012006F08AFBCA
:101260000120F4E711480069A84201D01020EEE700
:1012700040F2FF5006F07EFB0C48446904F46040E5
:1012800018B9200C30804046E1E704F4005008B162
:101290001320DCE704F4804008B11020D7E704F401
:1012A000004008B10F20D2E74046D0E7008001405F
:1012B00070B500264FF4803505E00F48446B04F00C
:1012C000450000B103E0281EA5F10105F5D100BFDE
:1012D00015B104F0040028B10326042006F04AFBEF
:1012E000304670BD04F0400018B10026402006F0E2
:1012F00041FB3046F5E700000080014021B1026863
:1013000042F00102026004E002684FF6FE731A40E8
:101310000260704701684FF6FE72114001600021C3
:10132000016041608160C1604B49884208D14A49EF
:101330000839496841F00F01474A083A51608AE08C
:1013400045491431884208D143490839496841F078
:10135000F001414A083A51607DE03F492831884216
:1013600008D13D490839496841F470613A4A083A60
:10137000516070E038493C31884208D1364908391B
:10138000496841F47041344A083A516063E0324997
:101390005031884208D130490839496841F47021F8
:1013A0002D4A083A516056E02B496431884208D1F1
:1013B00029490839496841F47001274A083A5160BF
:1013C00049E025497831884208D1234908394968DC
:1013D00041F07061204A083A51603CE01F49884260
:1013E00006D1011F096841F00F01021F116032E0B0
:1013F0001A491431884208D11849091F096841F077
:10140000F001164A121F116025E014492831884264
:1014100008D11249091F096841F470610F4A121F6F
:10142000116018E00D493C31884208D10B49091F71
:10143000096841F47041094A121F11600BE0074925
:101440005031884207D10549091F096841F47021CC
:10145000024A121F1160704708000240080402404F
:1014600010B50022026847F6F0739A430C6A8B6845
:1014700023430C6923434C6923438C692343CC6980
:1014800023434C6A23438C6A23431A430260CB688C
:1014900043600B6883604B68C36010BD70470000F9
:1014A0007CB54FF6E07001F027F84FF6FF70009022
:1014B0003B480288A0236421002001F0C5FAF020F7
:1014C000102338A264210090002008F0DDF8F020FD
:1014D00010233CA278210090002008F0D5F832209B
:1014E0000BF076F83B480078012840D10DF05CFF06
:1014F00005464FF6FF70854200D13AE0B5F57F4FC3
:1015000003D105F063FC044604E00121284605F000
:1015100027FC044604BB2F48007801281FD14FF652
:10152000E07000F0E9FF4FF6FF7000901C48028861
:10153000A0237821002001F087FAF020102326A2B2
:101540008C210090002008F09FF84FF496600BF07B
:101550003FF8FFF7A5FF02E0204607F0A9FF4FF490
:1015600096600BF035F801A805F010FE00E000E0F1
:1015700000BF4FF6FF70009009480288A023642145
:10158000002001F061FA32200BF022F84FF6FF70D4
:1015900000F0B2FF0121144808F080FB7CBD000080
:1015A000D4070020C7EBCAE4C8EBD2AAC9BEB3FD7A
:1015B000D6B8CEC64944B0B4C8B7C8CFB7A2CBCD11
:1015C00000000000303D3C204944203C3D32393988
:1015D0000000000067000020C9BEB3FDD6B8CEC62B
:1015E000B3C9B9A60000000000040040014621294B
:1015F0003ED2DFE801F011131517191B1D1F21231F
:1016000025273D3D3D3D292B3D3D3D2D3D3D2F3188
:101610003335373D3D393B0017A02BE017A029E0BB
:101620001AA027E01EA025E022A023E029A021E0A7
:1016300030A01FE036A01DE043A01BE045A019E04C
:1016400048A017E04BA000BF53A013E056A011E044
:1016500059A00FE061A00DE064A00BE066A009E0D6
:1016600069A007E06DA005E071A003E073A001E0B0
:1016700075A000BF00BF70474F4B0000CAFDBEDD24
:10168000B0FCBDD3CAD5B4EDCEF30000B4ABB8D036
:10169000C6F7C9CFC3BBD3D0CAD6D6B800000000A6
:1016A000C2BCC8EBD6B8CEC6CDBCCFF1CAA7B0DCA1
:1016B00000000000D6B8CEC6CDBCCFF1CCABB8C9C7
:1016C000A1A2CCABB5ADB6F8C9FAB2BBB3C9CCD800
:1016D000D5F70000D6B8CEC6CDBCCFF1CCABCAAAE8
:1016E000A1A2CCABBAFDB6F8C9FAB2BBB3C9CCD88B
:1016F000D5F70000D6B8CEC6CDBCCFF1CCABC2D2A8
:10170000B6F8C9FAB2BBB3C9CCD8D5F7000000000F
:10171000D6B8CEC6CDBCCFF1D5FDB3A3A3ACB5AB87
:10172000CCD8D5F7B5E3CCABC9D9A3A8BBF2C3E6F7
:10173000BBFDCCABD0A1A3A9B6F8C9FAB2BBB3C963
:10174000CCD8D5F700000000D6B8CEC6B2BBC6A52F
:10175000C5E40000C3BBCBD1CBF7B5BDD6B8CEC670
:1017600000000000CCD8D5F7BACFB2A2CAA7B0DC2F
:1017700000000000B7C3CECAD6B8CEC6BFE2CAB119
:10178000B5D8D6B7D0F2BAC5B3ACB3F6D6B8CEC6D4
:10179000BFE2B7B6CEA70000C9BEB3FDC4A3B0E593
:1017A000CAA7B0DC00000000C7E5BFD5D6B8CEC6DA
:1017B000BFE2CAA7B0DC0000BBBAB3E5C7F8C4DA21
:1017C000C3BBD3D0D3D0D0A7D4ADCABCCDBCB6F8A0
:1017D000C9FAB2BBB3C9CDBCCFF10000B6C1D0B419
:1017E00020464C41534820B3F6B4ED00CEB4B6A821
:1017F000D2E5B4EDCEF30000CEDED0A7BCC4B4E693
:10180000C6F7BAC500000000BCC4B4E6C6F7C9E814
:10181000B6A8C4DAC8DDB4EDCEF30000BCC7CAC2B6
:10182000B1BED2B3C2EBD6B8B6A8B4EDCEF30000C9
:10183000D6B8CEC6BFE2C2FA00000000B5D8D6B70F
:10184000B4EDCEF300000000C4A3BFE9B7B5BBD828
:10185000C8B7C8CFC2EBD3D0CEF3000030B5044632
:1018600004254FF4302000F06FF80546042D17D101
:101870000C48006940F002000A49086108464461CA
:10188000006940F0400008614FF4302000F05CF83F
:1018900005460448006941F6FD71084001490861A8
:1018A000284630BD0020024004200B49C96801F0E1
:1018B000010109B101200EE00749C96801F00401E6
:1018C00009B1022007E00449C96801F0100109B11B
:1018D000032000E004207047002002400348006914
:1018E00040F080000149086170470000002002407C
:1018F00070B504460D460426F00200F025F80646B1
:10190000042E11D10948006940F00100074908611F
:101910002580F00200F018F806460448006941F6F8
:10192000FE71084001490861304670BD0020024048
:1019300002480349486003484860704723016745EF
:1019400000200240AB89EFCD00B502460423FFF72B
:10195000ABFF034603E0FFF7A7FF0346521E012B30
:1019600001D1002AF7D102B90523184600BD0000B5
:1019700051B18200A2F1C042126842F0010382001C
:10198000A2F1C042136009E08200A2F1C0421268D5
:10199000034B1A408300A3F1C0431A607047000054
:1019A000FEFF0F00D0E901121143C2681143026922
:1019B00011434269114382691143C2691143026AAA
:1019C0001143426A1143826A1143C26A1143026B96
:1019D000114302689200A2F1C04211608168082997
:1019E0000BD101688900A1F1C041096841F04002B2
:1019F00001688900A1F1C0410A60416B0968426B2E
:101A0000526841EA0211426B926841EA0221426B3C
:101A1000928941EA0241426B128A41EA0251426BC9
:101A2000127D41EA0261426B926911430268521CC5
:101A30009200A2F1C0421160C16AB1F5804F1BD182
:101A4000816B0968826B526841EA0211826B92686D
:101A500041EA0221826B128A41EA0251826B127DB5
:101A600041EA0261826B9269114302689200A2F11D
:101A7000C042C2F8041107E06FF0704201688900AB
:101A8000A1F1C041C1F8042170470000FEB5012555
:101A9000012220A123480CF0C3F82248224B2349FD
:101AA000C2680CF006FA2248C079C0EB001000EBC7
:101AB0004000072190FBF1F201FB120086B20020EA
:101AC00010211A4A4FF4A073CDE900210290F022B0
:101AD000314607F077FD13480BF082FA0AE0002048
:101AE00000F076FC0446032C03D0012C01D0022C1C
:101AF00000D10025002DF2D1012211460D4808F039
:101B0000F6F84FF6FF7000F0F7FC01200A49087064
:101B1000FEBD0000303A2F6D6573736167652E74EA
:101B200078740000FC220020F4000020242500200E
:101B30007822002000040040060100202DE9FC412D
:101B400007460D4600260024002000900190082042
:101B50005B49086010204860402088600020C86011
:101B60004FF480600861084605F080FF1020FFF701
:101B7000E1FA044614B12046BDE8FC8151480088D2
:101B800000044F49086037204860402088600020EA
:101B9000C8604FF480600861084605F067FF372091
:101BA000FFF7C8FA04460CB12046E5E74FF0FF30D6
:101BB0004549086008204860302088600220C860DD
:101BC0000020086101204861084605F0EFFE002072
:101BD0003B49086033204860402088600020C8608E
:101BE0004FF480600861084605F040FF3320FFF79E
:101BF000A1FA04460CB12046BEE70CE04FF40010F9
:101C000005F0FEFE38B105F02BFF4DF82600761CDE
:101C1000022E00D306E02D48406B40F22A610840B6
:101C20000028EBD000BF082005F0EAFE20B1082014
:101C300005F0A0FE04209FE7022005F0E1FE20B1A0
:101C4000022005F097FE022096E7202005F0D8FE3E
:101C500020B1202005F08EFE06208DE74FF40070A5
:101C600005F0CEFE28B14FF4007005F083FE07208A
:101C700082E740F2FF5005F07DFE009800060099D3
:101C800001F47F4140EA0120009901F47F0140EA1C
:101C90001120009940EA11606860019800060199DE
:101CA00001F47F4140EA0120019901F47F0140EAFB
:101CB0001120019940EA1160286020465CE700008D
:101CC0000008002098000020140800200080014037
:101CD0002DE9F041024600250026002000230024C3
:101CE000002791F803C00CF00F0591F803C00CF029
:101CF000100CBCF1000F03D091F802C04CEA0505AE
:101D000091F800C0BCF1000F31D0146800202BE026
:101D10004FF0010C0CFA00F3B1F800C00CEA030616
:101D20009E4220D183004FF00F0C0CFA03F7BC4306
:101D300005FA03FC4CEA040491F803C0BCF1280F37
:101D400006D14FF0010C0CFA00FCC2F814C00AE0F6
:101D500091F803C0BCF1480F05D14FF0010C0CFA0B
:101D600000FCC2F810C0401C0828D1D31460B1F8A0
:101D700000C0BCF1FF0F34DD546800202EE000F1FC
:101D8000080C4FF0010808FA0CF3B1F800C00CEA97
:101D900003069E4221D183004FF00F0C0CFA03F78B
:101DA000BC4305FA03FC4CEA040491F803C0BCF1FF
:101DB000280F05D100F1080C08FA0CF8C2F81480BD
:101DC00091F803C0BCF1480F07D100F1080C4FF0A7
:101DD000010808FA0CF8C2F81080401C0828CED37D
:101DE0005460BDE8F0810246002093680B400BB1BF
:101DF000012000E000207047416170470161704799
:101E00002DE9F05F82460F4614462046E21704EBA8
:101E10005272D2102146E31704EB5373DB10A4EB8C
:101E2000C3030BB1012300E000231A44624302F014
:101E3000FF099AF800600AF1010082460578812EB8
:101E400005DB402D03DBFF2D01D0FF2E0DD14FF020
:101E5000000B06E0002007F8010B0BF1010000F079
:101E6000FF0BCB45F6DBBDE8F09F7F2D03DAA5F134
:101E70004000C5B202E0A5F14100C5B2A6F1810063
:101E8000C6B2BE2000FB065000FB09F80C2C04D0A3
:101E9000102C0CD0182C1ED113E01048D0F80900DB
:101EA00000EB08014A46384609F066F913E00B4892
:101EB000D0F8110000EB08014A46384609F05CF9F9
:101EC00009E00648D0F8190000EB08014A463846F8
:101ED00009F052F900BF00BF00BFC4E724F10020A1
:101EE00000BFFEE772B6704762B6704708B50121C1
:101EF000082005F0C7F94020ADF8000010208DF84B
:101F0000030003208DF8020069460B48FFF7E0FE4E
:101F100040210948FFF772FF8020ADF80000102033
:101F20008DF8030069460448FFF7D2FE802102487D
:101F3000FFF764FF08BD0000000C014070B50546C6
:101F4000002440202B4908608020091F0860294890
:101F50001438006820F0704026491439086008469B
:101F6000006840F00040086004200AF057FB00269B
:101F700018E040201F49091F086004200AF04EFBAA
:101F80006006040E1B480C380068C0F3C01008B18E
:101F9000601CC4B240201749086004200AF03EFBD0
:101FA000701CC6B2082EE4DB12481438006820F01A
:101FB00070401049143908600846006840F04050ED
:101FC000086025B980200B49091F086002E08020C5
:101FD0000849086004200AF021FB40200549091F38
:101FE000086004200AF01AFB4020024908602046DD
:101FF00070BD0000140C014010B540200B49086072
:102000008020091F08604020086004200AF006FBB9
:1020100080200649086004200AF000FB40200349A4
:10202000086004200AF0FAFA10BD0000140C014008
:1020300010B5402008490860802008604020091F32
:10204000086004200AF0EAFA80200349091F0860AA
:1020500004200AF0E3FA10BD140C014010B500246E
:1020600080202449086023481038006820F0704020
:102070002049103908600846006840F000400860B8
:1020800004200AF0CBFA40201A49086004200AF024
:10209000C5FA14E0601CC4B2FA2C10DD15481038E3
:1020A000006820F070401349103908600846006845
:1020B00040F040500860FFF7BBFF012010BD0D4805
:1020C00008380068C0F3C0100028E3D14020094957
:1020D000091D086007481038006820F07040054965
:1020E000103908600846006840F040500860002041
:1020F000E4E70000100C014070B50446402013498D
:10210000086000251EE004F0800020B180200F4907
:10211000091F086002E080200C4908606006040E78
:1021200004200AF07BFA40200849091F08600420B7
:102130000AF074FA40200549086004200AF06EFA9B
:10214000681CC5B2082DDEDB70BD0000140C014018
:1021500008B50121082005F095F84FF48050ADF83E
:10216000000010208DF8030003208DF8020069465E
:102170001648FFF7ADFD4FF480511448FFF73EFEBF
:102180004FF40050ADF8000069461048FFF7A0FD7D
:102190004FF400510D48FFF731FE4FF40040ADF809
:1021A000000069460948FFF793FD4FF400410748D6
:1021B000FFF724FE4FF48040ADF8000048208DF872
:1021C000030069460148FFF783FD08BD000C01408C
:1021D00010B5014600204FF40053154C2360002237
:1021E00023E001F0800323B14FF40043104C23603F
:1021F00004E04FF400430E4C241D23604FF40053C1
:102200000B4C241D23604B06190E4306180E084B79
:10221000083B1B68C3F380330BB1431CD8B24FF4A7
:102220000053034C2360531CDAB2082AD9DB10BDDB
:10223000100C01401CB5044600200190009021487C
:1022400000880004204908600D2048604020886014
:102250000020C8604FF480600861084605F006FC65
:102260001A48406B009002E01848406B00900098BC
:1022700000F045000028F7D0012005F0C1FB20B197
:10228000012005F077FB01201CBD042005F0B8FB00
:1022900020B1042005F06EFB0320F5E70B48006930
:1022A0000D2801D01020EFE740F2FF5005F062FB4F
:1022B0000648406901900198C0F343202070002037
:1022C000E2E70000980000200008002000800140A4
:1022D0000146CA1701EB92729210A1EB820292B9E9
:1022E000642091FBF0F200FB121050B94FF4C8705B
:1022F00091FBF0F200FB121008B90120704700209A
:10230000FCE70120FAE70020F8E700007CB505466D
:10231000EF208DF8000001208DF801001A480068B8
:10232000000E8DF8020018480068000C8DF80300BC
:1023300015480088000A8DF80400134800788DF8CD
:10234000050007208DF8060000208DF807000F49D2
:10235000088012E001200AF03BF90C48008800F4E4
:10236000004050B100200949088069460848FEF73E
:1023700049F904460CB120467CBD681E80B2051E9A
:10238000E8D100BFF8E70000E0000020DC000020FA
:10239000581F002008B50121442004F073FF1C20C1
:1023A000ADF8000048208DF8030069460648FFF7A5
:1023B0008FFC0120ADF8000028208DF8030069464D
:1023C0000248FFF785FC08BD0018014000080140E5
:1023D00010B5044614B101202C4908702B48007830
:1023E000002837D010212A48FFF7FDFC78B10821DA
:1023F0002748FFF7F8FC50B104212548FFF7F3FC0C
:1024000028B101212348FFF7EEFC012822D10A2040
:102410000AF0DEF800201D49087010211C48FFF763
:10242000E2FC08B9012010BD08211948FFF7DBFCC8
:1024300008B90220F7E704211548FFF7D4FC08B9D2
:102440000320F0E701211348FFF7CDFC01281BD141
:102450000420E8E710210E48FFF7C5FC012813D13E
:1024600008210B48FFF7BFFC01280DD104210848C3
:10247000FFF7B9FC012807D101210648FFF7B3FC9B
:1024800010B90120014908700020CCE78E0000201F
:10249000001801400008014008B501214FF4947074
:1024A00004F0F0FE4FF42A70ADF8000010208DF813
:1024B000030003208DF8020069460748FFF708FC77
:1024C0004FF4AA70ADF8000048208DF8030069466B
:1024D0000148FFF7FDFB08BD0020014030B5014673
:1024E00001F01F04C1F34513CA0AE50205EB4315C9
:1024F0001544A8B230BD000070B504460026174848
:102500000588408845431548808846F6040188427E
:1025100016D112488079012812D100200F49887104
:102520002A2048812B2088810021084604F01CF9CC
:1025300001200A4988712B2048812A20888103E0E4
:102540000021084604F010F904F05EFB002602E0CA
:1025500003480480761CAE42FAD370BDD407002035
:102560000008006C10B50446002C66D16C498871D7
:10257000F02008804FF4A07048800846808849F217
:10258000413188420BD06648808846F60401884273
:1025900005D06348808845F2103188421AD12C203A
:1025A0005F4908812A2048812B208881084680883D
:1025B00046F60401884205D05948808845F210311A
:1025C000884206D14FF4A070554908804FF4F0704E
:1025D0004880A1E05248808845F21051884210D1CD
:1025E0004FF430504E4908814FF4285048814FF441
:1025F0002C5088814FF4F07008804FF44870488068
:102600008AE04748808841F6631188420DD12C202A
:10261000434908812B2048812A2088814FF4F0709B
:1026200008804FF44870488076E022203C490881B9
:1026300020204881212088816EE00120384988715E
:102640004FF4A0700880F02048800846808849F246
:102650004131884205D03248808845F210318842A5
:1026600007D12C202E4908812A2048812B208881DF
:102670003FE02B48808846F60401884207D12C2091
:10268000274908812B2048812A20888131E024486D
:10269000808845F21051884210D14FF430502049C3
:1026A00008814FF4285048814FF42C5088814FF412
:1026B000487008804FF4F07048801AE0184880880D
:1026C00041F6631188420DD12C20154908812A203A
:1026D00048812B2088814FF4487008804FF4F070B7
:1026E000488006E022200E490881212048812020D0
:1026F00088810B48808846F60401884205D0084846
:10270000808845F21031884206D14FF4F0700449B8
:1027100008804FF4A0704880002003F0AFFE10BD89
:10272000D40700202DE9FF4F84B081468A4600205F
:10273000039002900698A0EB09050798A0EB0A0603
:10274000CDF80490CDF800A0002D01DD012705E0B3
:102750000DB9002702E04FF0FF376D42002E02DD79
:102760004FF0010806E016B94FF0000802E04FF004
:10277000FF387642B54201DD2C4600E034464FF08A
:10278000000B21E0009A91B2019A90B200F022F879
:102790000398284403900298304402900398A04282
:1027A00005DD0398001B03900198384401900298BE
:1027B000A04205DD0298001B029000984044009062
:1027C0000BF101001FFA80FB601C8345DADD08B0C5
:1027D000BDE8F08F30B504460D462946204603F08B
:1027E000C3FF04F011FA024800880249088030BD96
:1027F000900000200008006CF0B504460D46164617
:102800001F462B46324629462046FFF78BFF3B46A4
:10281000224629462046FFF785FF3B463246394689
:102820002046FFF77FFF3B46324629463046FFF7FA
:1028300079FFF0BD2DE9F04306460F46904600248F
:1028400045460320A0EB48093CE07A1B91B23219BF
:1028500090B2FFF7BFFF3A1B91B2721990B2FFF727
:10286000B9FF3A1991B2721990B2FFF7B3FF7A1912
:1028700091B2321990B2FFF7ADFF7A1991B2321BC3
:1028800090B2FFF7A7FF3A1991B2721B90B2FFF70F
:10289000A1FF7A1B91B2321B90B2FFF79BFF3A1B4C
:1028A00091B2721B90B2FFF795FF641CB9F1000F53
:1028B00003DAA000801D814404E0601B80000A3020
:1028C00081446D1EAC42C0DDBDE8F08330B50346E7
:1028D0000C4615465A48808849F24131884205D055
:1028E0005748808845F21031884214D154494889AC
:1028F00004F084F9181204F07BF9D8B204F078F9E6
:102900004F49888904F07AF9201204F071F9E0B295
:1029100004F06EF98CE04A48808845F210518842F4
:1029200020D14749488904F069F9181204F060F988
:1029300043494989491C88B204F060F9D8B204F0CF
:1029400057F93F49888904F059F9201204F050F9E9
:102950003B498989491C88B204F050F9E0B204F07F
:1029600047F965E03648808841F66311884228D1EE
:102970003348807920B932480088401EC01A83B29B
:102980002F49488904F03AF9181204F031F9D8B205
:1029900004F02EF9181204F02BF9D8B204F028F93B
:1029A0002749888904F02AF9201204F021F9E0B2BD
:1029B00004F01EF9201204F01BF9E0B204F018F93B
:1029C00036E01F48808846F6040188421DD11C4825
:1029D0008079012804D11A480088401EC01A83B2A9
:1029E0001749488904F00AF9181204F001F9D8B21D
:1029F00004F0FEF81249888904F000F9201204F06E
:102A0000F7F8E0B204F0F4F812E00D4880790128FC
:102A100004D10B480088401EC01A83B20849488977
:102A2000194604F0FBF806498889214604F0F6F8B7
:102A30000348008903490880881C058030BD0000D8
:102A4000D4070020FE07006C2DE9FC4F05460E461A
:102A500017469846DDF82C90002001902748808882
:102A600046F60401884229D124488079012825D1DD
:102A7000AB46354621480088C01B401E86B24746FB
:102A80001E480088A0EB0B00401E1FFA80F80020B3
:102A90001A4988712A2048812B20888143463A466A
:102AA00031462846CDF80090FFF7CEFF01201349AC
:102AB00088712B2048812A2088811CE0781B401CCB
:102AC00080B20190344614E02146284603F04CFEC3
:102AD00004F09AF84FF0000A06E00948A0F80090C8
:102AE0000AF101001FFA80FA01988245F5DB601CAB
:102AF00084B24445E8DDBDE8FC8F0000D407002027
:102B00000008006C00B59FB00121080204F08AFBA8
:102B100001214FF4B47004F0B5FB0120ADF878004A
:102B200010208DF87B0003208DF87A001EA9FE4846
:102B3000FFF7CEF84CF23370ADF8780018208DF81E
:102B40007B0003208DF87A001EA9F848FFF7C0F833
:102B50004FF68070ADF8780018208DF87B000320C8
:102B60008DF87A001EA9F248FFF7B2F841F2010091
:102B7000ADF8780018208DF87B0003208DF87A00DE
:102B80001EA9EC48FFF7A4F8012008900020099046
:102B90000F200A9000200B900C900D900E90019049
:102BA0000290032003900020049005900690079067
:102BB00006200F90002010901190102012900020FD
:102BC000139015901490169017904FF48050189011
:102BD000002019904FF480401A9000201B9008A804
:102BE0001C9001A81D900FA8FEF7DCFE0121062015
:102BF000FEF7BEFE322009F0EBFC002003F008FCDB
:102C0000CD49888008468088FF280ADB08468088EE
:102C10004FF6FF71884204D0C7488088B0F5134F43
:102C20007ED1D32003F0EAFF03F032FBC249888053
:102C300003F02EFBC049888003F02AFBBE49888040
:102C4000084680884FF6FF7101EA0020BA49888063
:102C500003F01EFBB84989880843B74988800846B5
:102C6000808849F2413188425AD0BF2003F0C6FF24
:102C700003F00EFBB049888003F00AFBAE49888060
:102C800003F006FBAC49888003F002FBAA49888068
:102C9000084680884FF6FF7101EA0020A649888027
:102CA00003F0F6FAA44989880843A34988800846B6
:102CB000808846F6040188427AD0D42003F09EFF33
:102CC00003F0E6FA9C49888003F0E2FA9A4988808A
:102CD00003F0DEFA98498880084680884FF6FF7135
:102CE00001EA00209449888003F0D2FA9249898849
:102CF0000843914988800846808845F2103188420F
:102D000056D04FF45A4003F079FF03F0C1FA8A49D4
:102D100088804FF45B4003F071FF03F0B9FA00E0E4
:102D200046E085498880084680884FF6FF7101EAB1
:102D30000020814988804FF45C4003F05FFF03F07E
:102D4000A7FA7D49898808437B498880084680889E
:102D5000B0F5004F02D145F2105088807648808847
:102D600045F21051884223D0A12003F047FF03F021
:102D70008FFA7149888003F08BFA6F498880084682
:102D800080884FF6FF7101EA00206B49888003F0CC
:102D90007FFA69498988084367498880084680889E
:102DA00045F26171884203D141F66310624988801F
:102DB0006148818861A0FDF77FFA5F48808849F209
:102DC000413188427ED1CF2003F018FF002003F06C
:102DD0000FFFC12003F00CFF302003F009FFED20AE
:102DE00003F00CFF642003F003FF032003F000FF57
:102DF000122003F0FDFE812003F0FAFEE82003F02C
:102E0000FDFE852003F0F4FE102003F0F1FE7A2091
:102E100003F0EEFECB2003F0F1FE392003F0E8FED4
:102E20002C2003F0E5FE002003F0E2FE342003F046
:102E3000DFFE022003F0DCFEF72003F0DFFE20209F
:102E400003F0D6FEEA2003F0D9FE002003F0D0FE06
:102E5000002003F0CDFEC02003F0D0FE1B2003F0C5
:102E6000C7FEC12003F0CAFE012003F0C1FEC52049
:102E700003F0C4FE302003F0BBFE302003F0B8FEA8
:102E8000C72003F0BBFEB72003F0B2FE362003F0EC
:102E9000B5FE482003F0ACFE3A2003F0AFFE55200B
:102EA00003F0A6FEB12003F0A9FE002003F0A0FE6F
:102EB0001A2003F09DFEB62003F0A0FE0A2003F0C6
:102EC00097FE00E0AAE0A22003F092FEF22003F0B9
:102ED00095FE002003F08CFE262003F08FFE0120DB
:102EE00003F086FEE02003F089FE0F2003F080FE51
:102EF0002A2003F07DFE282003F07AFE082003F04C
:102F000077FE0E2003F074FE082003F071FE5420BB
:102F100003F06EFEA92003F06BFE432003F068FE71
:102F20000A2003F065FE11E0000C0140001401408E
:102F30000018014000200140D4070020204C4344E9
:102F40002049443A25780D0A000000000F2003F0C4
:102F50004FFE002003F04CFE002003F049FE00204D
:102F600003F046FE002003F043FEE12003F046FE9E
:102F7000002003F03DFE152003F03AFE172003F079
:102F800037FE072003F034FE112003F031FE062047
:102F900003F02EFE2B2003F02BFE562003F028FE1C
:102FA0003C2003F025FE052003F022FE102003F054
:102FB0001FFE0F2003F01CFE3F2003F019FE3F20F0
:102FC00003F016FE0F2003F013FE2B2003F016FE75
:102FD000002003F00DFE002003F00AFE012003F0A4
:102FE00007FE3F2003F004FE2A2003F007FE002026
:102FF00003F0FEFD002003F0FBFD002003F0F8FDD0
:10300000EF2003F0F5FD112003F0F8FD782009F022
:10301000DFFA292003F0F2FD03F01DB9FE48808895
:1030200046F6040188427CD1112003F0E7FD14200C
:1030300009F0CEFAD02003F0E1FD072003F0D8FD1F
:10304000422003F0D5FD1D2003F0D2FDD12003F076
:10305000D5FD002003F0CCFD1A2003F0C9FD0920A6
:1030600003F0C6FDD22003F0C9FD012003F0C0FD2E
:10307000222003F0BDFDC02003F0C0FD102003F0AE
:10308000B7FD3B2003F0B4FD002003F0B1FD0220AA
:1030900003F0AEFD112003F0ABFDC52003F0AEFD43
:1030A000032003F0A5FDC82003F0A8FD002003F0D5
:1030B0009FFD252003F09CFD212003F099FD0520B4
:1030C00003F096FD002003F093FD0A2003F090FD2D
:1030D000652003F08DFD252003F08AFD772003F0A5
:1030E00087FD502003F084FD0F2003F081FD0020B8
:1030F00003F07EFDF82003F081FD012003F078FD50
:10310000FE2003F07BFD002003F072FD022003F09F
:103110006FFD202003F072FD362003F06FFD0820C4
:1031200000E02CE003F064FD3A2003F067FD552039
:1031300003F05EFD2B2003F061FD002003F058FD3D
:10314000002003F055FD012003F052FD3F2003F065
:103150004FFD2A2003F052FD002003F049FD00201E
:1031600003F046FD012003F043FDDF2003F040FDA6
:10317000782009F02DFA292003F040FD4CE7A648FD
:10318000808845F21031884240F07C87ED2003F0C2
:1031900035FD012003F02CFDFE2003F029FDEE207B
:1031A00003F02CFDDE2003F023FD212003F020FDA1
:1031B000F12003F023FD012003F01AFDDF2003F0CE
:1031C0001DFD102003F014FDC42003F017FD8F2017
:1031D00003F00EFDC62003F011FD002003F008FDF2
:1031E000E22003F005FDE22003F002FDE22003F0FF
:1031F000FFFCBF2003F002FDAA2003F0F9FCB02081
:1032000003F0FCFC0D2003F0F3FC002003F0F0FCC5
:103210000D2003F0EDFC002003F0EAFC112003F088
:10322000E7FC002003F0E4FC192003F0E1FC00209F
:1032300003F0DEFC212003F0DBFC002003F0D8FCCF
:103240002D2003F0D5FC002003F0D2FC3D2003F03C
:10325000CFFC002003F0CCFC5D2003F0C9FC002073
:1032600003F0C6FC5D2003F0C3FC002003F0C0FCAB
:10327000B12003F0C3FC802003F0BAFC002003F06F
:10328000B7FC8B2003F0B4FC002003F0B1FC9620C7
:1032900003F0AEFC002003F0ABFCB22003F0AEFC68
:1032A000002003F0A5FC002003F0A2FC022003F0A4
:1032B0009FFC002003F09CFC032003F099FC0020FD
:1032C00003F096FCB32003F099FC002003F090FC7F
:1032D000002003F08DFC002003F08AFC002003F0A6
:1032E00087FC002003F084FC002003F081FC002018
:1032F00003F07EFC002003F07BFC002003F078FC50
:10330000002003F075FC002003F072FC002003F0A5
:103310006FFC002003F06CFC002003F069FC00202F
:1033200003F066FC002003F063FC002003F060FC67
:10333000002003F05DFC002003F05AFC002003F0A5
:1033400057FC002003F054FC002003F051FC002047
:1033500003F04EFC002003F04BFCB42003F04EFCC5
:103360008B2003F045FC002003F042FC962003F084
:103370003FFC002003F03CFCA12003F039FC0020BE
:1033800003F036FCB52003F039FC022003F030FCDA
:10339000002003F02DFC032003F02AFC002003F0A2
:1033A00027FC042003F024FC002003F021FCB620BD
:1033B00003F024FC002003F01BFC002003F018FCA9
:1033C000B72003F01BFC002003F012FC002003F0E8
:1033D0000FFC3F2003F00CFC002003F009FC5E20F2
:1033E00003F006FC002003F003FC642003F000FC63
:1033F000002003F0FDFB8C2003F0FAFB002003F01B
:10340000F7FBAC2003F0F4FB002003F0F1FBDC2021
:1034100003F0EEFB002001E0D407002003F0E8FBFE
:10342000702003F0E5FB002003F0E2FB902003F0A6
:10343000DFFB002003F0DCFBEB2003F0D9FB0020D6
:1034400003F0D6FBDC2003F0D3FB002003F0D0FB1D
:10345000B82003F0D3FB002003F0CAFB002003F0E8
:10346000C7FB002003F0C4FB002003F0C1FB0020D9
:1034700003F0BEFB002003F0BBFB002003F0B8FB11
:10348000002003F0B5FBBA2003F0B8FB242003F0C2
:10349000AFFB002003F0ACFB002003F0A9FB0020F1
:1034A00003F0A6FBC12003F0A9FB202003F0A0FB42
:1034B000002003F09DFB542003F09AFB002003F052
:1034C00097FBFF2003F094FB002003F091FBC22048
:1034D00003F094FB0A2003F08BFB002003F088FB31
:1034E000042003F085FB002003F082FBC32003F0DF
:1034F00085FB3C2003F07CFB002003F079FB3A20A5
:1035000003F076FB002003F073FB392003F070FB1F
:10351000002003F06DFB372003F06AFB002003F06E
:1035200067FB3C2003F064FB002003F061FB3620C6
:1035300003F05EFB002003F05BFB322003F058FB3E
:10354000002003F055FB2F2003F052FB002003F076
:103550004FFB2C2003F04CFB002003F049FB2920FB
:1035600003F046FB002003F043FB262003F040FB62
:10357000002003F03DFB242003F03AFB002003F081
:1035800037FB242003F034FB002003F031FB232021
:1035900003F02EFB002003F02BFB3C2003F028FB64
:1035A000002003F025FB362003F022FB002003F06F
:1035B0001FFB322003F01CFB002003F019FB2F201F
:1035C00003F016FB002003F013FB2C2003F010FB8C
:1035D000002003F00DFB292003F00AFB002003F07C
:1035E00007FB262003F004FB002003F001FB24204E
:1035F00003F0FEFA002003F0FBFA242003F0F8FAAF
:10360000002003F0F5FA232003F0F2FA002003F083
:10361000EFFAC42003F0F2FA622003F0E9FA002086
:1036200003F0E6FA052003F0E3FA002003F0E0FAE5
:10363000842003F0DDFA002003F0DAFAF02003F032
:10364000D7FA002003F0D4FA182003F0D1FA0020B2
:1036500003F0CEFAA42003F0CBFA002003F0C8FA5E
:10366000182003F0C5FA002003F0C2FA502003F03E
:10367000BFFA002003F0BCFA0C2003F0B9FA0020D6
:1036800003F0B6FA172003F0B3FA002003F0B0FA03
:10369000952003F0ADFA002003F0AAFAF32003F01E
:1036A000A7FA002003F0A4FAE62003F0A1FA002014
:1036B00003F09EFAC52003F0A1FA322003F098FA35
:1036C000002003F095FA442003F092FA002003F062
:1036D0008FFA652003F08CFA002003F089FA762037
:1036E00003F086FA002003F083FA882003F080FAC2
:1036F000002003F07DFAC62003F080FA202003F0BA
:1037000077FA002003F074FA172003F071FA002012
:1037100003F06EFA012003F06BFA002003F068FA60
:10372000C72003F06BFA002003F062FA002003F0D8
:103730005FFA002003F05CFA002003F059FAC82079
:1037400003F05CFA002003F053FA002003F050FA73
:10375000002003F04DFA002003F04AFAC92003F0DC
:103760004DFA002003F044FA002003F041FA002053
:1037700003F03EFA002003F03BFA002003F038FA91
:10378000002003F035FA002003F032FA002003F0A5
:103790002FFA002003F02CFA002003F029FA002071
:1037A00003F026FA002003F023FA002003F020FAA9
:1037B000002003F01DFA002003F01AFA002003F0A5
:1037C00017FAE02003F01AFA162003F011FA00208D
:1037D00003F00EFA1C2003F00BFA002003F008FAA5
:1037E000212003F005FA002003F002FA362003F04E
:1037F000FFF9002003F0FCF9462003F0F9F900205E
:1038000003F0F6F9522003F0F3F9002003F0F0F989
:10381000642003F0EDF9002003F0EAF97A2003F0C8
:10382000E7F9002003F0E4F98B2003F0E1F9002030
:1038300003F0DEF9992003F0DBF9002003F0D8F95A
:10384000A82003F0D5F9002003F0D2F9B92003F045
:10385000CFF9002003F0CCF9C42003F0C9F900200F
:1038600003F0C6F9CA2003F0C3F9002003F0C0F941
:10387000D22003F0BDF9002003F0BAF9D92003F0FB
:10388000B7F9002003F0B4F9E02003F0B1F900200B
:1038900003F0AEF9F32003F0ABF9002003F0A8F930
:1038A000E12003F0ABF9162003F0A2F9002003F0A9
:1038B0009FF91C2003F09CF9002003F099F92220C5
:1038C00003F096F9002003F093F9362003F090F905
:1038D000002003F08DF9452003F08AF9002003F061
:1038E00087F9522003F084F9002003F081F9642065
:1038F00003F07EF9002003F07BF97A2003F078F9D9
:10390000002003F075F98B2003F072F9002003F01A
:103910006FF9992003F06CF9002003F069F9A820F1
:1039200003F066F9002003F063F9B92003F060F9B1
:10393000002003F05DF9C42003F05AF9002003F0E1
:1039400057F9CA2003F054F9002003F051F9D220AE
:1039500003F04EF9002003F04BF9D82003F048F9AA
:10396000002003F045F9E02003F042F9002003F0C5
:103970003FF9F32003F03CF9002003F039F9E2208D
:1039800003F03CF9052003F033F9002003F030F98F
:103990000B2003F02DF9002003F02AF91B2003F07F
:1039A00027F9002003F024F9342003F021F9002046
:1039B00003F01EF9442003F01BF9002003F018F96E
:1039C0004F2003F015F9002003F012F9612003F0F5
:1039D0000FF9002003F00CF9792003F009F9002019
:1039E00003F006F9882003F003F9002003F000F942
:1039F000972003F0FDF8002003F0FAF8A62003F06A
:103A0000F7F8002003F0F4F8B72003F0F1F80020F5
:103A100003F0EEF8C22003F0EBF8002003F0E8F822
:103A2000C72003F0E5F8002003F0E2F8D12003F00E
:103A3000DFF8002003F0DCF8D62003F0D9F80020EE
:103A400003F0D6F8DD2003F0D3F8002003F0D0F81F
:103A5000F32003F0CDF8002003F0CAF8E32003F0D0
:103A6000CDF8052003F0C4F8002003F0C1F80A20C7
:103A700003F0BEF8002003F0BBF81C2003F0B8F8F8
:103A8000002003F0B5F8332003F0B2F8002003F073
:103A9000AFF8442003F0ACF8002003F0A9F8502060
:103AA00003F0A6F8002003F0A3F8622003F0A0F8CA
:103AB000002003F09DF8782003F09AF8002003F02E
:103AC00097F8882003F094F8002003F091F89720ED
:103AD00003F08EF8002003F08BF8A62003F088F89E
:103AE000002003F085F8B72003F082F8002003F0EF
:103AF0007FF8C22003F07CF8002003F079F8C7209B
:103B000003F076F8002003F073F8D12003F070F88A
:103B1000002003F06DF8D52003F06AF8002003F0D0
:103B200067F8DD2003F064F8002003F061F8F3206B
:103B300003F05EF8002003F05BF8E42003F05EF889
:103B4000012003F055F8002003F052F8012003F0A3
:103B50004FF8002003F04CF8022003F049F8002051
:103B600003F046F82A2003F043F8002003F040F861
:103B70003C2003F03DF8002003F03AF84B2003F01E
:103B800037F8002003F034F85D2003F031F800200E
:103B900003F02EF8742003F02BF8002003F028F82F
:103BA000842003F025F8002003F022F8932003F08E
:103BB0001FF8002003F01CF8A22003F019F80020E1
:103BC00003F016F8B32003F013F8002003F010F808
:103BD000BE2003F00DF8002003F00AF8C42003F023
:103BE00007F8002003F004F8CD2003F001F80020CE
:103BF00002F0FEFFD32002F0FBFF002002F0F8FFEE
:103C0000DD2002F0F5FF002002F0F2FFF32002F0C9
:103C1000EFFF002002F0ECFFE52002F0EFFF0020B4
:103C200002F0E6FF002002F0E3FF002002F0E0FFD8
:103C3000002002F0DDFF022002F0DAFF002002F097
:103C4000D7FF292002F0D4FF002002F0D1FF3C2052
:103C500002F0CEFF002002F0CBFF4B2002F0C8FFA5
:103C6000002002F0C5FF5D2002F0C2FF002002F03C
:103C7000BFFF742002F0BCFF002002F0B9FF8420D7
:103C800002F0B6FF002002F0B3FF932002F0B0FF75
:103C9000002002F0ADFFA22002F0AAFF002002F0F7
:103CA000A7FFB32002F0A4FF002002F0A1FFBE2076
:103CB00002F09EFF002002F09BFFC42002F098FF5C
:103CC000002002F095FFCD2002F092FF002002F0CC
:103CD0008FFFD32002F08CFF002002F089FFDC2050
:103CE00002F086FF002002F083FFF32002F080FF45
:103CF000002002F07DFFE62002F080FF112002F09C
:103D000077FF002002F074FF342002F071FF0020E2
:103D100002F06EFF562002F06BFF002002F068FFF9
:103D2000762002F065FF002002F062FF772002F0AB
:103D30005FFF002002F05CFF662002F059FF0020C8
:103D400002F056FF882002F053FF002002F050FFDF
:103D5000992002F04DFF002002F04AFFBB2002F044
:103D600047FF002002F044FF992002F041FF0020AD
:103D700002F03EFF662002F03BFF002002F038FF19
:103D8000552002F035FF002002F032FF552002F0EE
:103D90002FFF002002F02CFF452002F029FF002019
:103DA00002F026FF432002F023FF002002F020FF54
:103DB000442002F01DFF002002F01AFFE72002F06D
:103DC0001DFF322002F014FF002002F011FF5520E9
:103DD00002F00EFF002002F00BFF762002F008FF39
:103DE000002002F005FF662002F002FF002002F032
:103DF000FFFE672002F0FCFE002002F0F9FE6720C3
:103E000002F0F6FE002002F0F3FE872002F0F0FE42
:103E1000002002F0EDFE992002F0EAFE002002F000
:103E2000E7FEBB2002F0E4FE002002F0E1FE992054
:103E300002F0DEFE002002F0DBFE772002F0D8FE6A
:103E4000002002F0D5FE442002F0D2FE002002F055
:103E5000CFFE562002F0CCFE002002F0C9FE232047
:103E600002F0C6FE002002F0C3FE332002F0C0FEC6
:103E7000002002F0BDFE452002F0BAFE002002F054
:103E8000B7FEE82002F0BAFE002002F0B1FE0020EA
:103E900002F0AEFE992002F0ABFE002002F0A8FE78
:103EA000872002F0A5FE002002F0A2FE882002F08A
:103EB0009FFE002002F09CFE772002F099FE002079
:103EC00002F096FE662002F093FE002002F090FEC3
:103ED000882002F08DFE002002F08AFEAA2002F067
:103EE00087FE002002F084FEBB2002F081FE00204D
:103EF00002F07EFE992002F07BFE002002F078FEA8
:103F0000662002F075FE002002F072FE552002F0DD
:103F10006FFE002002F06CFE552002F069FE0020CA
:103F200002F066FE442002F063FE002002F060FE14
:103F3000442002F05DFE002002F05AFE552002F0FF
:103F400057FE002002F054FEE92002F057FEAA209E
:103F500002F04EFE002002F04BFE002002F048FE70
:103F6000002002F045FE002002F048FEAA2002F0E8
:103F70003FFECF2002F042FE002002F039FE00207A
:103F800002F036FE002002F033FE002002F030FE88
:103F9000002002F02DFE002002F02AFE002002F098
:103FA00027FE002002F024FE002002F021FE002067
:103FB00002F01EFE002002F01BFE002002F018FEA0
:103FC000002002F015FE002002F012FE002002F098
:103FD0000FFE002002F00CFE002002F009FEF0208F
:103FE00002F00CFE002002F003FE502002F000FE62
:103FF000002002F0FDFD002002F0FAFD002002F09A
:10400000F7FDF32002F0FAFD002002F0F1FDF920A7
:1040100002F0F4FD062002F0EBFD102002F0E8FDB6
:10402000292002F0E5FD002002F0E2FD3A2002F036
:10403000E5FD552002F0DCFD112002F0DFFD6420DB
:1040400008F0C6FA292002F0D9FD352002F0D6FD8D
:10405000002002F0CDFD512002F0D0FDFF2002F043
:10406000C7FD532002F0CAFD2C2002F0C1FD5520EF
:1040700002F0C4FD822002F0BBFD2C2002F0BEFD48
:1040800002F0E9B8FE48808845F2105188427DD19F
:1040900055214FF4704002F0C1FDAA214FF20100FA
:1040A00002F0BCFD52214FF2020002F0B7FD0821E0
:1040B0004FF2030002F0B2FD01214FF2040002F0C2
:1040C000ADFD0D214FF4304002F0A8FD0D214BF263
:1040D000010002F0A3FD0D214BF2020002F09EFD53
:1040E00034214FF4364002F099FD34214BF2016047
:1040F00002F094FD34214BF2026002F08FFD0D219D
:104100004FF4314002F08AFD0D214BF2011002F014
:1041100085FD0D214BF2021002F080FD34214FF499
:10412000374002F07BFD34214BF2017002F076FD46
:1041300034214BF2027002F071FD00214FF4324045
:1041400002F06CFD00214BF2012002F067FD00211E
:104150004BF2022002F062FD24214FF4384002F0BD
:104160005DFD24214BF6010002F058FD24214BF6A1
:10417000020002F053FD01214FF43F4002F04EFDDA
:104180000F214FF4334002F049FD00E0FDE30F2121
:104190004BF2013002F042FD0F214BF2023002F0EF
:1041A0003DFD34214FF4394002F038FD34214BF607
:1041B000011002F033FD34214BF6021002F02EFD07
:1041C00008214FF4354002F029FD08214BF201503F
:1041D00002F024FD08214BF2025002F01FFD0321E2
:1041E0004FF4424002F01AFD24214FF43A4002F00D
:1041F00015FD24214BF6012002F010FD24214BF681
:10420000022002F00BFD00214FF43C4002F006FDBD
:1042100078214BF6014002F001FD00214BF60240EF
:1042200002F0FCFC00214FF43D4002F0F7FC782145
:104230004BF6015002F0F2FC00214BF6025002F066
:10424000EDFC00214FF43E4002F0E8FC64214BF607
:10425000016002F0E3FC00214FF4514002F0DEFC6B
:1042600033214DF2011002F0D9FC00214DF2021071
:1042700002F0D4FC34214DF2031002F0CFFC0021F7
:104280004DF2041002F0CAFC3A214DF2051002F082
:10429000C5FC00214DF2061002F0C0FC4A214DF28F
:1042A000071002F0BBFC00214DF2081002F0B6FC32
:1042B0005C214DF2091002F0B1FC00214DF20A1010
:1042C00002F0ACFC81214DF20B1002F0A7FC0021A2
:1042D0004DF20C1002F0A2FCA6214DF20D1002F0DE
:1042E0009DFC00214DF20E1002F098FCE5214DF2EC
:1042F0000F1002F093FC01214DF2101002F08EFC21
:1043000013214DF2111002F089FC01214DF212101F
:1043100002F084FC54214DF2131002F07FFC0121C5
:104320004DF2141002F07AFC82214DF2151002F0C9
:1043300075FC01214DF2161002F070FCCA214DF2FD
:10434000171002F06BFC02214DF2181002F066FC0F
:1043500000214DF2191002F061FC02214DF21A10F9
:1043600002F05CFC01214DF21B1002F057FC02210F
:104370004DF21C1002F052FC34214DF21D1002F0DF
:104380004DFC02214DF21E1002F048FC67214DF257
:104390001F1002F043FC02214DF2201002F03EFCFF
:1043A00084214DF2211002F039FC02214DF222103D
:1043B00002F034FCA4214DF2231002F02FFC022164
:1043C0004DF2241002F02AFCB7214DF2251002F024
:1043D00025FC02214DF2261002F020FCCF214DF2E7
:1043E000271002F01BFC02214DF2281002F016FCEF
:1043F000DE214DF2291002F011FC02214DF22A10AB
:1044000002F00CFCF2214DF22B1002F007FC02210D
:104410004DF22C1002F002FCFE214DF22D1002F0A4
:10442000FDFB03214DF22E1002F0F8FB10214DF29E
:104430002F1002F0F3FB03214DF2301002F0EEFBDF
:1044400033214DF2311002F0E9FB03214DF232101D
:1044500002F0E4FB6D214DF2331002F0DFFB00218E
:104460004FF4524002F0DAFB33214DF2012002F00A
:10447000D5FB00214DF2022002F0D0FB342101E0F7
:10448000D40700204DF2032002F0C8FB00214DF2BA
:10449000042002F0C3FB3A214DF2052002F0BEFBDE
:1044A00000214DF2062002F0B9FB4A214DF207200F
:1044B00002F0B4FB00214DF2082002F0AFFB5C21BA
:1044C0004DF2092002F0AAFB00214DF20A2002F071
:1044D000A5FB81214DF20B2002F0A0FB00214DF243
:1044E0000C2002F09BFBA6214DF20D2002F096FB62
:1044F00000214DF20E2002F091FBE5214DF20F203C
:1045000002F08CFB01214DF2102002F087FB1321F9
:104510004DF2112002F082FB01214DF2122002F037
:104520007DFB54214DF2132002F078FB01214DF266
:10453000142002F073FB82214DF2152002F06EFB75
:1045400001214DF2162002F069FBCA214DF217201D
:1045500002F064FB02214DF2182002F05FFB002103
:104560004DF2192002F05AFB02214DF21A2002F0FE
:1045700055FB01214DF21B2002F050FB02214DF2B0
:104580001C2002F04BFB34214DF21D2002F046FBB3
:1045900002214DF21E2002F041FB67214DF21F2047
:1045A00002F03CFB02214DF2202002F037FB842177
:1045B0004DF2212002F032FB02214DF2222002F0C6
:1045C0002DFBA4214DF2232002F028FB02214DF205
:1045D000242002F023FBB7214DF2252002F01EFB20
:1045E00002214DF2262002F019FBCF214DF22720A7
:1045F00002F014FB02214DF2282002F00FFBDE2115
:104600004DF2292002F00AFB02214DF22A2002F08D
:1046100005FBF2214DF22B2002F000FB02214DF2AE
:104620002C2002F0FBFAFE214DF22D2002F0F6FACA
:1046300003214DF22E2002F0F1FA10214DF22F202D
:1046400002F0ECFA03214DF2302002F0E7FA3321B8
:104650004DF2312002F0E2FA03214DF2322002F055
:10466000DDFA6D214DF2332002F0D8FA00214FF42B
:10467000534002F0D3FA33214DF2013002F0CEFA6A
:1046800000214DF2023002F0C9FA34214DF203301C
:1046900002F0C4FA00214DF2043002F0BFFA3A21D0
:1046A0004DF2053002F0BAFA00214DF2063002F068
:1046B000B5FA4A214DF2073002F0B0FA00214DF26E
:1046C000083002F0ABFA5C214DF2093002F0A6FA94
:1046D00000214DF20A3002F0A1FA81214DF20B3097
:1046E00002F09CFA00214DF20C3002F097FAA6215C
:1046F0004DF20D3002F092FA00214DF20E3002F030
:104700008DFAE5214DF20F3002F088FA01214DF2C9
:10471000103002F083FA13214DF2113002F07EFACC
:1047200001214DF2123002F079FA54214DF213308A
:1047300002F074FA01214DF2143002F06FFA822176
:104740004DF2153002F06AFA01214DF2163002F0F6
:1047500065FACA214DF2173002F060FA02214DF2DB
:10476000183002F05BFA00214DF2193002F056FACF
:1047700002214DF21A3002F051FA01214DF21B30A4
:1047800002F04CFA02214DF21C3002F047FA3421BB
:104790004DF21D3002F042FA02214DF21E3002F0BD
:1047A0003DFA67214DF21F3002F038FA02214DF236
:1047B000203002F033FA84214DF2213002F02EFA3B
:1047C00002214DF2223002F029FAA4214DF22330C9
:1047D00002F024FA02214DF2243002F01FFAB72130
:1047E0004DF2253002F01AFA02214DF2263002F085
:1047F00015FACF214DF2273002F010FA02214DF2C6
:10480000283002F00BFADE214DF2293002F006FAD0
:1048100002214DF22A3002F001FAF2214DF22B3042
:1048200002F0FCF902214DF22C3002F0F7F9FE21E2
:104830004DF22D3002F0F2F903214DF22E3002F04C
:10484000EDF910214DF22F3002F0E8F903214DF27D
:10485000303002F0E3F933214DF2313002F0DEF96D
:1048600003214DF2323002F0D9F96D214DF233308F
:1048700002F0D4F900214FF4544002F0CFF9332173
:104880004DF2014002F0CAF900214DF2024002F05F
:10489000C5F934214DF2034002F0C0F900214DF278
:1048A000044002F0BBF93A214DF2054002F0B6F99E
:1048B00000214DF2064002F0B1F94A214DF20740C5
:1048C00002F0ACF900214DF2084002F0A7F95C219A
:1048D0004DF2094002F0A2F900214DF20A4002F027
:1048E0009DF981214DF20B4002F098F900214DF223
:1048F0000C4002F093F9A6214DF20D4002F08EF922
:1049000000214DF20E4002F089F9E5214DF20F40F1
:1049100002F084F901214DF2104002F07FF91321D9
:104920004DF2114002F07AF901214DF2124002F0ED
:1049300075F954214DF2134002F070F901214DF246
:10494000144002F06BF982214DF2154002F066F935
:1049500001214DF2164002F061F9CA214DF21740D3
:1049600002F05CF902214DF2184002F057F90021E3
:104970004DF2194002F052F902214DF21A4002F0B4
:104980004DF901214DF21B4000E006E302F046F92B
:1049900002214DF21C4002F041F934214DF21D403C
:1049A00002F03CF902214DF21E4002F037F9672176
:1049B0004DF21F4002F032F902214DF2204002F088
:1049C0002DF984214DF2214002F028F902214DF207
:1049D000224002F023F9A4214DF2234002F01EF9F7
:1049E00002214DF2244002F019F9B7214DF2254081
:1049F00002F014F902214DF2264002F00FF9CF2106
:104A00004DF2274002F00AF902214DF2284002F04F
:104A100005F9DE214DF2294002F000F902214DF2A4
:104A20002A4002F0FBF8F2214DF22B4002F0F6F89A
:104A300002214DF22C4002F0F1F8FE214DF22D4002
:104A400002F0ECF803214DF22E4002F0E7F81021BD
:104A50004DF22F4002F0E2F803214DF2304002F017
:104A6000DDF833214DF2314002F0D8F803214DF248
:104A7000324002F0D3F86D214DF2334002F0CEF80F
:104A800000214FF4554002F0C9F833214DF2015096
:104A900002F0C4F800214DF2025002F0BFF83421B8
:104AA0004DF2035002F0BAF800214DF2045002F02A
:104AB000B5F83A214DF2055002F0B0F800214DF260
:104AC000065002F0ABF84A214DF2075002F0A6F86A
:104AD00000214DF2085002F0A1F85C214DF209507E
:104AE00002F09CF800214DF20A5002F097F8812163
:104AF0004DF20B5002F092F800214DF20C5002F0F2
:104B00008DF8A6214DF20D5002F088F800214DF2EB
:104B10000E5002F083F8E5214DF20F5002F07EF8BE
:104B200001214DF2105002F079F813214DF211508D
:104B300002F074F801214DF2125002F06FF8542186
:104B40004DF2135002F06AF801214DF2145002F0B8
:104B500065F882214DF2155002F060F801214DF206
:104B6000165002F05BF8CA214DF2175002F056F8C9
:104B700002214DF2185002F051F800214DF2195067
:104B800002F04CF802214DF21A5002F047F80121D0
:104B90004DF21B5002F042F802214DF21C5002F07F
:104BA0003DF834214DF21D5002F038F802214DF24B
:104BB0001E5002F033F867214DF21F5002F02EF81C
:104BC00002214DF2205002F029F884214DF22150AB
:104BD00002F024F802214DF2225002F01FF8A42125
:104BE0004DF2235002F01AF802214DF2245002F047
:104BF00015F8B7214DF2255002F010F802214DF2C0
:104C0000265002F00BF8CF214DF2275002F006F8A3
:104C100002214DF2285002F001F8DE214DF2295018
:104C200001F0FCFF02214DF22A5001F0F7FFF221C2
:104C30004DF22B5001F0F2FF02214DF22C5001F009
:104C4000EDFFFE214DF22D5001F0E8FF03214DF262
:104C50002E5001F0E3FF10214DF22F5001F0DEFF46
:104C600003214DF2305001F0D9FF33214DF2315084
:104C700001F0D4FF03214DF2325001F0CFFF6D213E
:104C80004DF2335001F0CAFF00214FF4564001F0BD
:104C9000C5FF33214DF2016001F0C0FF00214DF24C
:104CA000026001F0BBFF34214DF2036001F0B6FF5A
:104CB00000214DF2046001F0B1FF3A214DF2056090
:104CC00001F0ACFF00214DF2066001F0A7FF4A2180
:104CD0004DF2076001F0A2FF00214DF2086001F0E3
:104CE0009DFF5C214DF2096001F098FF00214DF21B
:104CF0000A6001F093FF81214DF20B6001F08EFFFD
:104D000000214DF20C6001F089FFA6214DF20D60EB
:104D100001F084FF00214DF20E6001F07FFFE521DC
:104D20004DF20F6001F07AFF01214DF2106001F0A9
:104D300075FF13214DF2116001F070FF01214DF25A
:104D4000126001F06BFF54214DF2136001F066FF19
:104D500001214DF2146001F061FF82214DF21560D6
:104D600001F05CFF01214DF2166001F057FFCA21EE
:104D70004DF2176001F052FF02214DF2186001F070
:104D80004DFF00214DF2196001F048FF02214DF264
:104D90001A6001F043FF01214DF21B6001F03EFF5C
:104DA00002214DF21C6001F039FF34214DF21D60EB
:104DB00001F034FF02214DF21E6001F02FFF672148
:104DC0004DF21F6001F02AFF02214DF2206001F038
:104DD00025FF84214DF2216001F020FF02214DF2D8
:104DE000226001F01BFFA4214DF2236001F016FFA9
:104DF00002214DF2246001F011FFB7214DF2256030
:104E000001F00CFF02214DF2266001F007FFCF21D7
:104E10004DF2276001F002FF02214DF2286001F0FF
:104E2000FDFEDE214DF2296001F0F8FE02214DF277
:104E30002A6001F0F3FEF2214DF22B6001F0EEFE4C
:104E400002214DF22C6001F0E9FEFE214DF22D60B1
:104E500001F0E4FE03214DF22E6001F0DFFE10218F
:104E60004DF22F6001F0DAFE03214DF2306001F0C7
:104E7000D5FE33214DF2316001F0D0FE03214DF219
:104E8000326001F0CBFE6D214DF2336001F0C6FEC1
:104E900055214FF4704001F0C1FEAA214FF20100EC
:104EA00001F0BCFE52214FF2020001F0B7FE0821D2
:104EB0004FF2030001F0B2FE00214FF2040001F0B6
:104EC000ADFECC214FF4314001F0A8FE00214BF2A1
:104ED000011001F0A3FE05214FF4364001F09EFEC3
:104EE00070214FF4374001F099FE70214BF20170B0
:104EF00001F094FE01214FF4384001F08FFE0321B0
:104F00004BF6010001F08AFE03214BF6020001F08E
:104F100085FE03214BF6030001F080FE02214FF4D1
:104F20003C4001F07BFE00214BF6014001F076FE93
:104F300000214BF6024001F071FED0214FF44940B0
:104F400001F06CFE02214CF6011001F067FE5021C9
:104F50004CF6021001F062FE50214CF6031001F0F5
:104F60005DFE50214CF6041001F058FE00214FF474
:104F7000545001F053FE55214FF4685001F04EFE9D
:104F80004FF4885001F03AFE782007F047FB4FF4C9
:104F9000245001F033FE01F05EB9FE48808849F2EA
:104FA000253188427ED147F6F001E52001F036FE3A
:104FB0004FF48071012001F031FE4FF4E0610220D6
:104FC00001F02CFE41F23001032001F027FE002108
:104FD000042001F023FE40F20221082001F01EFE11
:104FE0000021092001F01AFE00210A2001F016FE1E
:104FF00000210C2001F012FE00210D2001F00EFE18
:1050000000210F2001F00AFE0021102001F006FE11
:105010000721112001F002FE0021122001F0FEFD07
:105020000021132001F0FAFD0021072001F0F6FD18
:1050300041F29061102001F0F1FD40F22721112092
:1050400001F0ECFD9D21122001F0E8FD4FF4C85164
:10505000132001F0E3FD2521292001F0DFFD0D21C2
:105060002B2001F0DBFD0721302001F0D7FD40F2BD
:105070000331312001F0D2FD0321322001F0CEFDB9
:1050800040F20621352001F0C9FD0821362001F04B
:10509000C5FD40F20641372001F0C0FD4FF44171DB
:1050A000382000E057E001F0B9FD0721392001F078
:1050B000B5FD40F202613C2001F0B0FD08213D2029
:1050C00001F0ACFD0021502001F0A8FDEF2151209E
:1050D00001F0A4FD0021522001F0A0FD40F23F119B
:1050E000532001F09BFD4FF42741602001F096FD15
:1050F0000121612001F092FD00216A2001F08EFD66
:105100000021802001F08AFD0021812001F086FD30
:105110000021822001F082FD0021832001F07EFD2C
:105120000021842001F07AFD0021852001F076FD28
:105130001021902001F072FD4FF4C061922001F027
:105140006DFD40F23311072001F068FD222100209F
:1051500001F064FD1FE78F48808849F228318842BA
:105160007ED141F28F01EC2001F058FD41F2342153
:10517000EF2001F053FD4FF48071012001F04EFD4E
:105180004FF4E061022001F049FD41F230010320BB
:1051900001F044FD0021042001F040FD40F2022115
:1051A000082001F03BFD0021092001F037FD00211E
:1051B0000A2001F033FD01210C2001F02FFD002118
:1051C0000D2001F02BFD00210F2001F027FD002113
:1051D000102001F023FD0721112001F01FFD002107
:1051E000122001F01BFD0021132001F017FD012109
:1051F000072001F013FD322007F0EAF941F2904157
:10520000102001F00BFD40F22721112001F006FDD6
:10521000322007F0DDF98A21122001F0FFFC322054
:1052200007F0D6F94FF4D051132001F0F7FC062116
:10523000292001F0F3FC0D212B2001F0EFFC32209E
:1052400007F0C6F90021202001F0E8FC0021212010
:1052500001F0E4FC322007F0BBF90021302000E02F
:1052600074E001F0DBFC40F20461312001F0D6FC77
:1052700040F20531322001F0D1FC0021352001F04F
:10528000CDFC40F60941362001F0C8FC4FF4017115
:10529000372001F0C3FC40F20131382001F0BEFCA0
:1052A00040F20771392001F0B9FC00213C2001F0E7
:1052B000B5FC40F60A213D2001F0B0FC322007F099
:1052C00087F90021502001F0A9FCEF21512001F0C5
:1052D000A5FC0021522001F0A1FC40F23F11532017
:1052E00001F09CFC4FF42741602001F097FC012164
:1052F000612001F093FC00216A2001F08FFC002165
:10530000802001F08BFC0021812001F087FC00212E
:10531000822001F083FC0021832001F07FFC00212A
:10532000842001F07BFC0021852001F077FC102116
:10533000902001F073FC4FF4C061922001F06EFCEC
:1053400040F23311072001F069FC24E611488088FF
:1053500049F2203188427DD10021084601F05EFCEF
:105360004FF48071012001F059FC4FF4E0610220FC
:1053700001F054FC41F23001032001F04FFC002108
:10538000042001F04BFC40F20221082001F046FC11
:10539000002101E0D4070020092001F03FFC00219A
:1053A0000A2001F03BFC01210C2001F037FC002118
:1053B0000D2001F033FC00210F2001F02FFC3220E2
:1053C00007F006F940F20111072001F027FC322016
:1053D00007F0FEF84FF48651102001F01FFC072162
:1053E000112001F01BFC4FF48871122001F016FC13
:1053F0004FF43061132001F011FC0021292001F04D
:105400000DFC44F210012B2001F008FC002150207B
:1054100001F004FCEF21512001F000FC002152209A
:1054200001F0FCFB40F23F11532001F0F7FB4FF479
:105430001C51602001F0F2FB0121612001F0EEFB24
:1054400000216A2001F0EAFB0021802001F0E6FB48
:10545000002100E031E0812001F0E0FB002182200A
:1054600001F0DCFB0021832001F0D8FB0021842027
:1054700001F0D4FB0021852001F0D0FB1021902009
:1054800001F0CCFB0021922001F0C8FB0121932008
:1054900001F0C4FB4FF48871952001F0BFFB00219F
:1054A000972001F0BBFB0021982001F0B7FB40F2F0
:1054B0007311072001F0B2FB6DE5FE48808849F2C8
:1054C000313188427DD141F21401E72001F0A6FB81
:1054D0004FF48071012001F0A1FB4FF40071022014
:1054E00001F09CFB41F23801032001F097FB40F2F0
:1054F0000221082001F092FB0021092001F08EFB1F
:1055000000210A2001F08AFB00210C2001F086FB1B
:1055100000210D2001F082FB00210F2001F07EFB15
:105520000021102001F07AFB0721112001F076FB09
:105530000021122001F072FB0021132001F06EFB0C
:10554000C82007F045F841F29061102001F066FB99
:1055500040F22721112001F061FB322007F038F8DA
:105560000C21122001F05AFB322007F031F84FF4E1
:105570000061132001F052FB1121292001F04EFBA4
:105580000B212B2001F04AFB322007F021F80021EB
:10559000202001F043FB40F23F11212001F03EFBAF
:1055A0000021302001F03AFB4FF48371312001F0EB
:1055B00035FB0021322001F031FB4FF40171352021
:1055C00000E064E001F02AFB41F20A61362001F0BC
:1055D00025FB40F20771372001F020FB4FF4837167
:1055E000382001F01BFB40F20771392001F016FB57
:1055F00040F202413C2001F011FB40F60F413D20FA
:1056000001F00CFB0021502001F008FBEF2151209C
:1056100001F004FB0021522001F000FB40F23F1199
:10562000532001F0FBFA4FF41C51602001F0F6FA10
:105630000121612001F0F2FA00216A2001F0EEFA66
:105640000021802001F0EAFA0021812001F0E6FA31
:105650000021822001F0E2FA0021832001F0DEFA2D
:105660000021842001F0DAFA0021852001F0D6FA29
:105670001021902001F0D2FA4FF4C061922001F085
:10568000CDFA40F23311072001F0C8FA83E48948CB
:10569000808845F2084188427ED14FF48071012014
:1056A00001F0BCFA4FF4E061022001F0B7FA41F2D8
:1056B0003001032001F0B2FA0021042001F0AEFA1B
:1056C00040F20721082001F0A9FA0021092001F089
:1056D000A5FA00210A2001F0A1FA00210C2001F016
:1056E0009DFA00210D2001F099FA00210F2001F010
:1056F00095FA142006F06CFF41F2B061102001F021
:105700008DFA0121112001F089FA0121172001F001
:1057100085FA4FF49C71122001F080FA4FF4006179
:10572000132001F07BFA0921292001F077FA0921E1
:105730002A2001F073FA0021A42001F06FFA002161
:10574000502001F06BFAEF21512001F067FA00219F
:10575000522001F063FA40F23F11532001F05EFA4B
:105760004FF41C51602001F059FA0121612001F031
:1057700055FA00216A2001F051FA0021802001F041
:105780004DFA0021812001F049FA0021822001F028
:1057900045FA0021832000E023E001F03FFA0021D8
:1057A000842001F03BFA0021852001F037FA132113
:1057B000902001F033FA0021922001F02FFA03210A
:1057C000932001F02BFA4FF48871952001F026FA0E
:1057D00040F27311072001F021FA322006F0F8FEA2
:1057E000B8E43448808841F2055188427ED10021D6
:1057F000072001F013FA322006F0EAFE4FF48E7112
:10580000122001F00BFA0121A42001F007FA0F2168
:10581000082001F003FA08210A2001F0FFF908210D
:105820000D2001F0FBF940F20771302001F0F6F98C
:105830000721312001F0F2F940F20361322001F03A
:10584000EDF94FF4E061332001F0E8F940F2022174
:10585000342001F0E3F90221352001F0DFF941F6AF
:105860000F71362001F0DAF940F20771372001F0AC
:10587000D5F90021382001F0D1F90021392001F0BB
:10588000CDF940F207713A2001F0C8F900213B2020
:1058900001F0C4F907213C2001F0C0F900213D20AE
:1058A00001F0BCF9322006F093FE0121072001F03F
:1058B000B5F901E0D40700200121172001F0AEF96D
:1058C000322006F085FE4FF4BD51102001F0A6F9FC
:1058D00040F21721112001F0A1F94FF48F7112202D
:1058E00001F09CF94FF47061132000E097E001F0A3
:1058F00095F900212A2001F091F90A21292001F0CF
:105900008DF94FF49F71122001F088F90021502089
:1059100001F084F9EF21512001F080F9002152209B
:1059200001F07CF940F23F11532001F077F94FF478
:105930001C51602001F072F90121612001F06EF923
:1059400000216A2001F06AF90021802001F066F947
:105950000021812001F062F90021822001F05EF92E
:105960000021832001F05AF90021842001F056F92A
:105970000021852001F052F91321902001F04EF909
:105980004FF44071922001F049F90521932001F074
:1059900045F90021952001F041F90021972001F0FF
:1059A0003DF90021982001F039F94FF48071012070
:1059B00001F034F94FF4E061022001F02FF941F2D7
:1059C0003801032001F02AF90021042001F026F912
:1059D00000210C2001F022F900210F2001F01EF916
:1059E0000021202001F01AF90021212001F016F9F0
:1059F0002121072001F012F9142006F0E9FD6121B0
:105A0000072001F00BF9142006F0E2FD40F27311BB
:105A1000072001F003F9142006F0DAFD95E4FE48B2
:105A200080884BF2055188427ED10021084601F062
:105A3000F5F80021084601F0F1F80021084601F0D0
:105A4000EDF80021084601F0E9F80121A42001F059
:105A5000E5F8142006F0BCFD4FF41C51602001F065
:105A6000DDF840F20221082001F0D8F84FF405716A
:105A7000302001F0D3F843F21571312001F0CEF857
:105A800040F20461322001F0C9F840F6166133207B
:105A900001F0C4F842F21121342001F0BFF84FF4B4
:105AA000A851352001F0BAF848F20751362001F02C
:105AB000B5F841F20741372001F0B0F841F2034157
:105AC000382001F0ABF82021392001F0A7F81A2185
:105AD000902001F0A3F80021102001F09FF8072189
